{
  "transactions": [
    {
      "hash": "0x303d4545ba2990877ed300f56129d68e249eb4facf4f33fab7c934a237ed3071",
      "transactionType": "CALL",
      "contractName": null,
      "contractAddress": "0x5FbDB2315678afecb367f032d93F642f64180aa3",
      "function": "transfer(address,uint256)",
      "arguments": [
        "0xDbE107044c846bC3aEA87119bDA9cdB57daCF645",
        "100000000000000000000"
      ],
      "transaction": {
        "from": "0xf39Fd6e51aad88F6F4ce6aB8827279cffFb92266",
        "to": "0x5FbDB2315678afecb367f032d93F642f64180aa3",
        "gas": "0x11811",
        "value": "0x0",
        "input": "0xa9059cbb000000000000000000000000dbe107044c846bc3aea87119bda9cdb57dacf6450000000000000000000000000000000000000000000000056bc75e2d63100000",
        "nonce": "0x4",
        "chainId": "0x539"
      },
      "additionalContracts": [],
      "isFixedGasLimit": false
    }
  ],
  "receipts": [
    {
      "status": "0x1",
      "cumulativeGasUsed": "0xcac4",
      "logs": [
        {
          "address": "0x5FbDB2315678afecb367f032d93F642f64180aa3",
          "topics": [
            "0xddf252ad1be2c89b69c2b068fc378daa952ba7f163c4a11628f55a4df523b3ef",
            "0x000000000000000000000000f39fd6e51aad88f6f4ce6ab8827279cfffb92266",
            "0x000000000000000000000000dbe107044c846bc3aea87119bda9cdb57dacf645"
          ],
          "data": "0x0000000000000000000000000000000000000000000000056bc75e2d63100000",
          "blockHash": "0x8dc441a11aaef5b1ee85860802735308123f228ba9e8dc68ff18e303ad642fcd",
          "blockNumber": "0x17c",
          "blockTimestamp": "0x6707bd04",
          "transactionHash": "0x303d4545ba2990877ed300f56129d68e249eb4facf4f33fab7c934a237ed3071",
          "transactionIndex": "0x0",
          "logIndex": "0x0",
          "removed": false
        }
      ],
      "logsBloom": "0x00000000000000000000000000000000000000000000000000000000000000000000000000000000000000000000000000000000000000000000000000000000000000000000000000000008000000000000000000000000000000000000000000000040000000000000000100000040000000000000000000000010000000000000000000000000000000000000000000000000000001000000000200000000000000000000000000000000000000000000000000000000000000000000000000000042000000200000000000000000000000002000000000000000000000000000000000000000000000000000000000000000000000000002000000000000",
      "type": "0x2",
      "transactionHash": "0x303d4545ba2990877ed300f56129d68e249eb4facf4f33fab7c934a237ed3071",
      "transactionIndex": "0x0",
      "blockHash": "0x8dc441a11aaef5b1ee85860802735308123f228ba9e8dc68ff18e303ad642fcd",
      "blockNumber": "0x17c",
      "gasUsed": "0xcac4",
      "effectiveGasPrice": "0x8",
      "blobGasPrice": "0x1",
      "from": "0xf39Fd6e51aad88F6F4ce6aB8827279cffFb92266",
      "to": "0x5FbDB2315678afecb367f032d93F642f64180aa3",
      "contractAddress": null,
      "root": "0x989d69f500c9030d502dc2eae8cb41b4e5d574500a10c9237846400afcf325d4"
    }
  ],
  "libraries": [],
  "pending": [],
  "returns": {
    "0": {
      "internal_type": "uint256",
      "value": "100000000000000000000"
    }
  },
  "timestamp": 1728560388,
  "chain": 1337,
  "commit": "95929a3"
}