{
  "transactions": [
    {
      "hash": "0xc32c9e8186183deaf1931d2f6fd9a6c9e5b9138e57e75253be2444a0fef4aac6",
      "transactionType": "CALL",
      "contractName": null,
      "contractAddress": "0x5FbDB2315678afecb367f032d93F642f64180aa3",
      "function": "transfer(address,uint256)",
      "arguments": [
        "0x81B532F1E20C34911e36a660fD7208aFB770d64a",
        "100000000000000000000"
      ],
      "transaction": {
        "from": "0xf39Fd6e51aad88F6F4ce6aB8827279cffFb92266",
        "to": "0x5FbDB2315678afecb367f032d93F642f64180aa3",
        "gas": "0x11811",
        "value": "0x0",
        "input": "0xa9059cbb00000000000000000000000081b532f1e20c34911e36a660fd7208afb770d64a0000000000000000000000000000000000000000000000056bc75e2d63100000",
        "nonce": "0x3",
        "chainId": "0x539"
      },
      "additionalContracts": [],
      "isFixedGasLimit": false
    }
  ],
  "receipts": [
    {
      "status": "0x1",
      "cumulativeGasUsed": "0xcac4",
      "logs": [
        {
          "address": "0x5FbDB2315678afecb367f032d93F642f64180aa3",
          "topics": [
            "0xddf252ad1be2c89b69c2b068fc378daa952ba7f163c4a11628f55a4df523b3ef",
            "0x000000000000000000000000f39fd6e51aad88f6f4ce6ab8827279cfffb92266",
            "0x00000000000000000000000081b532f1e20c34911e36a660fd7208afb770d64a"
          ],
          "data": "0x0000000000000000000000000000000000000000000000056bc75e2d63100000",
          "blockHash": "0x410b5d38e814296173355fc818a7c893935446970921b3994a89d3bdc346c093",
          "blockNumber": "0x147",
          "blockTimestamp": "0x6707bad1",
          "transactionHash": "0xc32c9e8186183deaf1931d2f6fd9a6c9e5b9138e57e75253be2444a0fef4aac6",
          "transactionIndex": "0x0",
          "logIndex": "0x0",
          "removed": false
        }
      ],
      "logsBloom": "0x00000000000000000000000000000000000000000000000000000000000000000000000000000000000000000000000000000000000000000000000000100000000000000000000000000008000000000000000000000000000000000000000000000040000000000000000100000000000000000000000000000010000000000000000000000000000000000000000000000000000000800000000200000000000000000000000000000000000000000000000000000000000000000000000000000042000000200000000000200000000000002000000000000000000000000000000000000000000000000000000000000000000000000000000000000000",
      "type": "0x2",
      "transactionHash": "0xc32c9e8186183deaf1931d2f6fd9a6c9e5b9138e57e75253be2444a0fef4aac6",
      "transactionIndex": "0x0",
      "blockHash": "0x410b5d38e814296173355fc818a7c893935446970921b3994a89d3bdc346c093",
      "blockNumber": "0x147",
      "gasUsed": "0xcac4",
      "effectiveGasPrice": "0x8",
      "blobGasPrice": "0x1",
      "from": "0xf39Fd6e51aad88F6F4ce6aB8827279cffFb92266",
      "to": "0x5FbDB2315678afecb367f032d93F642f64180aa3",
      "contractAddress": null,
      "root": "0x3a4da3c117da1c97ef55544840b7b3f771905e3a664619178bec752237da54e4"
    }
  ],
  "libraries": [],
  "pending": [],
  "returns": {
    "0": {
      "internal_type": "uint256",
      "value": "100000000000000000000"
    }
  },
  "timestamp": 1728559825,
  "chain": 1337,
  "commit": "95929a3"
}